:020000040800F2
:10000000000002209D130008D1100008DD10000838
:10001000E5100008ED100008F510000800000000D1
:10002000000000000000000000000000FD100008BB
:100030000B11000800000000191100082911000828
:10004000ED130008ED130008ED130008ED13000890
:10005000ED130008ED130008ED130008ED13000880
:10006000ED130008ED130008ED130008ED13000870
:10007000ED130008ED130008ED130008ED13000860
:10008000ED130008ED130008ED130008ED13000850
:10009000ED130008ED130008ED130008ED13000840
:1000A000ED130008ED130008ED130008ED13000830
:1000B000ED130008ED130008ED130008ED13000820
:1000C000ED130008ED130008ED130008ED13000810
:1000D000ED130008ED130008F1110008ED130008FE
:1000E000ED130008ED130008ED130008ED130008F0
:1000F000ED130008ED130008ED130008ED130008E0
:10010000ED130008ED130008ED130008ED130008CF
:10011000ED130008ED130008ED130008ED130008BF
:10012000FD110008ED130008ED130008ED130008A1
:10013000ED130008ED130008ED130008ED1300089F
:10014000ED130008ED130008ED1300081D12000860
:10015000ED130008ED130008ED130008ED1300087F
:10016000ED130008ED130008ED130008ED1300086F
:10017000ED130008ED130008ED1300080000000067
:08018000ED130008ED13000867
:1001900010B5054C237833B9044B13B10448AFF3C1
:1001A00000800123237010BD00000020000000002B
:1001B00050F4050808B5034B1BB103490348AFF3DE
:1001C000008008BD000000000400002050F4050875
:1001D00010F8012B11F8013B012A28BF9A42F7D0F1
:1001E000D01A7047034613F8012B002AFBD1181AC6
:1001F000013870470000000000000000000000000F
:1002000001F0FF01102A2BDB10F0070F08D010F8C7
:10021000013B013A8B422DD010F0070F42B3F6D1CB
:10022000F0B441EA012141EA014122F007047FF0E4
:1002300000070023F0E80256083C85EA010586EA3B
:10024000010685FA47F5A3FA87F586FA47F6A5FA77
:1002500087F68EB9EED1F0BC01F0FF0102F0070283
:1002600032B110F8013B013A83EA010313B1F8D12E
:100270000020704701387047002D06BF354603380F
:10028000073815F0010F07D1013015F4807F02BF48
:10029000013015F4C03F0130F0BC0138704700BF99
:1002A00053B94AB9002908BF00281CBF4FF0FF31DD
:1002B0004FF0FF3000F06AB9ADF1080C6DE904CEE3
:1002C00000F006F8DDF804E0DDE9022304B0704731
:1002D0002DE9F047089D0C46002B4ED194468C45E5
:1002E0008646B2FA82F262D94AB1C2F12003914045
:1002F00020FA03F30CFA02FC194300FA02FE4FEA5B
:100300001C471FFA8CF6B1FBF7F44FEA1E4307FBBC
:10031000141143EA014304FB06F199420AD91CEB8C
:10032000030304F1FF3080F01281994240F20F8103
:10033000023C6344591A1FFA8EF3B1FBF7F007FB36
:10034000101143EA014300FB06F69E420AD91CEB5A
:10035000030300F1FF3180F0FC809E4240F2F980FF
:10036000634402389B1B40EA044000211DB1D34086
:100370000022C5E90032BDE8F0878B4205D90DB1F6
:10038000C5E9000100210846F5E7B3FA83F1002929
:1003900046D1A34202D39042C0F0F080861A64EBAB
:1003A00003030120002DE6D0C5E90063E3E7002A3E
:1003B00040F09080A1EB0C044FEA1C481FFA8CF728
:1003C0000121B4FBF8F64FEA1E4308FB164443EA4A
:1003D000044307FB06F0984208D91CEB030306F11F
:1003E000FF3402D2984200F2CD8026461C1A1FFA32
:1003F0008EF3B4FBF8F008FB104443EA044300FB1F
:1004000007F79F4208D91CEB030300F1FF3402D227
:100410009F4200F2B0802046DB1B40EA0640A5E781
:10042000C1F120068B4022FA06F71F4320FA06FC92
:1004300004FA01F343EA0C03F44000FA01F8380C23
:100440004FEA1349B4FBF0FE1FFA87FC00FB1E4481
:1004500049EA04440EFB0CF9A14502FA01F20AD95B
:100460003C190EF1FF3A80F08480A14540F2818072
:10047000AEF1020E3C44A4EB09041FFA83F9B4FB6D
:10048000F0F300FB134449EA044403FB0CFCA445CD
:1004900007D93C1903F1FF3067D2A44565D9023B67
:1004A0003C4443EA0E40A0FB0293A4EB0C049C42A4
:1004B000CE469C4651D34ED055B1B8EB0E0364EBFB
:1004C0000C0404FA06F6CB401E43CC40C5E9006498
:1004D000002150E7C2F1200320FA03F10CFA02FCDC
:1004E00024FA03F394400C434FEA1C4800FA02FE3E
:1004F0001FFA8CF7B3FBF8F008FB1031230C43EA2A
:10050000014300FB07F1994208D91CEB030300F1FA
:10051000FF362CD299422AD9023863445B1AA4B21E
:10052000B3FBF8F108FB113344EA034401FB07F382
:10053000A34208D91CEB040401F1FF3613D2A342F5
:1005400011D902396444E41A41EA004139E704460A
:10055000F0E6084606E7C845AED2B9EB020E63EBFB
:10056000070C0138A8E73146EDE7034699E7304626
:10057000D4E7D6467FE7634402384DE70646234674
:1005800008460FE7023E634430E700BF704700BFF4
:1005900080B400AF044BDB681B0A03F00703184666
:1005A000BD465DF8047B704700ED00E080B483B089
:1005B00000AF0346FB7197F90730002B0BDBFB798B
:1005C00003F01F02074997F907305B09012000FA81
:1005D00002F241F8232000BF0C37BD465DF8047BD2
:1005E000704700BF00E100E080B483B000AF034675
:1005F0003960FB7197F90730002B0ADB3B68DAB2F0
:100600000C4997F907301201D2B20B4483F800234A
:100610000AE03B68DAB20849FB7903F00F03043BB8
:100620001201D2B20B441A7600BF0C37BD465DF8FA
:10063000047B704700E100E000ED00E080B489B089
:1006400000AFF860B9607A60FB6803F00703FB61F4
:10065000FB69C3F10703042B28BF0423BB61FB69BB
:100660000433062B02D9FB69033B00E000237B61C6
:100670004FF0FF32BB6902FA03F3DA43BB681A405A
:100680007B699A404FF0FF317B6901FA03F3D9434C
:100690007B680B40134318462437BD465DF8047B46
:1006A000704780B483B000AF78607B68DB6843F448
:1006B00000527B68DA6000BF0C37BD465DF8047BF2
:1006C000704780B483B000AF78607B681B6923F407
:1006D00090427B681A617B685B6923F02A027B6821
:1006E0005A6100BF0C37BD465DF8047B70470000BF
:1006F00080B485B000AF7860084B1A6B07497B68FF
:1007000013430B63054B1A6B7B681340FB60FB685C
:1007100000BF1437BD465DF8047B704700380240C7
:1007200080B485B000AF7860084B1A6C07497B68CD
:1007300013430B64054B1A6C7B681340FB60FB682A
:1007400000BF1437BD465DF8047B70470038024097
:1007500080B500AF4FF40071024806F054F800BFB6
:1007600080BD00BF0004024080B500AF05F07EF9F7
:1007700000F04EF800F008FA00F0B0F900F0FEFAD0
:1007800000F0B2F85CF008FB00F012F900F046F956
:1007900000F0D8F856F0AEFF164B04221A700BF09A
:1007A00051FF03F0FBFD13F0FBFE04F0D3FE04F059
:1007B0003DFF0EF0C9FE00224FF4FA710E4844F0DE
:1007C000AFFD002214210D4844F0AAFD002264214F
:1007D0000B4844F0A5FD002264210A4844F0A0FD26
:1007E000094804F0D1FC03469AB2084B1A8044F041
:1007F000CFFCFCE76808002051070008E14300082F
:10080000E12E00089149000868F405086A080020F4
:1008100080B594B000AF07F12003302200211846C4
:100820005DF045FA07F10C0300221A605A609A60E5
:10083000DA601A610023BB60294B1B6C284A43F025
:1008400080531364264B1B6C03F08053BB60BB6862
:1008500000237B60234B1B68224A43F480431360D0
:10086000204B1B6803F480437B607B6801233B6261
:100870004FF480337B620223BB634FF48003FB633E
:1008800019233B644FF4A8737B640223BB640723E2
:10089000FB6407F12003184608F01CFA0346002BFE
:1008A00001D000F0CBFA0F23FB6002233B61002351
:1008B0007B614FF4A053BB614FF48053FB6107F1A0
:1008C0000C030521184608F07DFC0346002B01D0DF
:1008D00000F0B4FA08F05CFD00BF5037BD4680BDA3
:1008E000003802400070004080B500AF124B134A40
:1008F0001A60114B124A5A600F4B00229A600E4B3D
:100900000022DA600C4B4FF480421A610A4B00223D
:100910005A61094B00229A61074B0022DA61064BAB
:1009200000221A62044805F089FF0346002B01D01B
:1009300000F084FA00BF80BD1C000020005400407D
:10094000A086010080B500AF174B184A1A60164BFD
:100950004FF482725A60144B00229A60124B0022AC
:10096000DA60114B00221A610F4B00225A610E4BC4
:100970004FF400729A610C4B0022DA610A4B00229C
:100980001A62094B00225A62074B00229A62064BF8
:100990000A22DA62044808F008FE0346002B01D060
:1009A00000F04CFA00BF80BD700000200030014014
:1009B00080B500AF174B184A1A60164B4FF482727D
:1009C0005A60144B00229A60124B0022DA60114BDD
:1009D00000221A610F4B00225A610E4B4FF4007235
:1009E0009A610C4B0822DA610A4B00221A62094B09
:1009F00000225A62074B00229A62064B0A22DA62F0
:100A0000044808F0D2FD0346002B01D000F016FA8E
:100A100000BF80BDC8000020003C004080B58EB003
:100A200000AF07F11C0300221A605A609A60DA6076
:100A30001A615A619A613B1D00221A605A609A60DD
:100A4000DA601A615A614FF40030FFF769FE012045
:100A5000FFF74EFE0C237B600223BB600323FB6089
:100A600000233B6101237B610723BB613B1D1946CA
:100A7000184809F058FCFFF78BFD034600220021BF
:100A80001846FFF7DBFD034619462620FFF7ACFDAD
:100A90002620FFF78BFD4FF4E133FB6100233B621F
:100AA00000237B620023BB620C23FB6200233B63B9
:100AB00000237B6307F11C03194607480AF056F828
:100AC0000548FFF7FEFD0448FFF7EBFD00BF383790
:100AD000BD4680BD000002400044004080B582B0A9
:100AE00000AF00237B60254B1B6B244A43F480033B
:100AF0001363224B1B6B03F480037B607B68204BEA
:100B0000204A1A601E4B00225A601D4B80229A60B8
:100B10001B4B4FF40072DA60194B4FF480621A617C
:100B2000174B4FF400625A61154B4FF400529A6113
:100B3000134B0022DA61124B00221A62104B04227E
:100B40005A620F4B03229A620D4B0022DA620C4B61
:100B500000221A630A4805F031F90346002B01D040
:100B600000F06CF900220021382005F0F0F8382060
:100B700005F009F900BF0837BD4680BD00380240C6
:100B8000200100201064024080B58CB000AF07F156
:100B90001C0300221A605A609A60DA601A6100230E
:100BA000BB61704B1B6B6F4A43F0800313636D4B4B
:100BB0001B6B03F08003BB61BB6900237B61694B46
:100BC0001B6B684A43F001031363664B1B6B03F016
:100BD00001037B617B6900233B61624B1B6B614AB4
:100BE00043F0020313635F4B1B6B03F002033B6193
:100BF0003B690023FB605B4B1B6B5A4A43F01003BD
:100C00001363584B1B6B03F01003FB60FB6800235E
:100C1000BB60544B1B6B534A43F008031363514BA7
:100C20001B6B03F00803BB60BB6800237B604D4B6C
:100C30001B6B4C4A43F0040313634A4B1B6B03F0DA
:100C400004037B607B68012248F21001464805F0EE
:100C5000C1FD002240F20321444805F0BBFD002203
:100C60008021434805F0B6FD01224021414805F0AE
:100C7000B1FD01220221404805F0ACFD48F210030D
:100C8000FB6101233B6200237B620323BB6207F10C
:100C90001C031946344805F001FC0323FB610123C2
:100CA0003B6200237B620223BB6207F11C031946EF
:100CB0002E4805F0F3FB8023FB6101233B620023F8
:100CC0007B620223BB6207F11C031946284805F02A
:100CD000E5FB4FF48073FB6100233B6201237B62E1
:100CE00007F11C031946224805F0D8FB4023FB619D
:100CF00001233B6200237B620323BB6207F11C03D9
:100D000019461C4805F0CAFB4FF40073FB61012330
:100D10003B6200237B620023BB6207F11C03194680
:100D2000124805F0BBFB0123FB6100233B6201235A
:100D30007B6207F11C0319460F4805F0AFFB022345
:100D4000FB6101233B6200237B620023BB6207F14E
:100D50001C031946084805F0A1FB00BF3037BD460B
:100D600080BD00BF00380240000002400004024085
:100D700000080240000C02400010024080B588B01C
:100D800000AF3B1D00221A605A609A60DA601A6157
:100D90005A619A61274B4FF020421A60254B264A30
:100DA0005A60244B00229A60224B0022DA60214BC9
:100DB00000221A611F4B10225A611E4B00229A61B9
:100DC0001C4B0022DA611B4B00221A62194B0022D5
:100DD0005A62184B4FF480529A62164B0022DA6224
:100DE000144B00221A63134B00225A63114B00224A
:100DF0009A63104B00225A6402237B600F23BB606E
:100E00000823FB6000233B6110237B611123BB613E
:100E10000023FB613B1D00221946064809F018F823
:100E20000346002B01D000F009F800BF2037BD4673
:100E300080BD00BF80010020040100A080B400AF8D
:100E400072B600BF00BFFDE780B483B000AF0023DF
:100E50007B60104B5B6C0F4A43F4804353640D4B33
:100E60005B6C03F480437B607B6800233B60094B31
:100E70001B6C084A43F080531364064B1B6C03F051
:100E800080533B603B6800BF0C37BD465DF8047B78
:100E9000704700BF0038024080B58AB000AF78606C
:100EA00007F1140300221A605A609A60DA601A612E
:100EB0007B681B68194A93422CD100233B61184B75
:100EC0001B6B174A43F002031363154B1B6B03F0B4
:100ED00002033B613B694FF4C0737B611223BB612A
:100EE0000123FB6103233B6204237B6207F11403AC
:100EF00019460C4805F0D2FA0023FB60084B1B6C26
:100F0000074A43F400131364054B1B6C03F40013EE
:100F1000FB60FB6800BF2837BD4680BD0054004021
:100F2000003802400004024080B58CB000AF786009
:100F300007F11C0300221A605A609A60DA601A6195
:100F40007B681B68324A93422CD10023BB61314B32
:100F50005B6C304A43F4805353642E4B5B6C03F458
:100F60008053BB61BB6900237B612A4B1B6B294A01
:100F700043F001031363274B1B6B03F001037B61F9
:100F80007B69E023FB6102233B6200237B62032336
:100F9000BB620523FB6207F11C0319461E4805F0DE
:100FA0007DFA31E07B681B681C4A93422CD10023F8
:100FB0003B61184B1B6C174A43F400431364154BF9
:100FC0001B6C03F400433B613B690023FB60114B46
:100FD0001B6B104A43F0040313630E4B1B6B03F0AF
:100FE0000403FB60FB684FF4E053FB6102233B62A8
:100FF00000237B620323BB620623FB6207F11C0311
:101000001946074805F04AFA00BF3037BD4680BD93
:10101000003001400038024000000240003C004027
:101020000008024080B586B000AF3B1D00221A6068
:101030005A609A60DA601A611C4B1B68002B31D130
:101040001A4B01221A6000233B60194B9B6B184A14
:1010500043F001039363164B9B6B03F001033B606A
:101060003B684FF680737B600223BB600023FB600C
:1010700003233B610C237B613B1D19460D4805F0A2
:101080000DFA4CF6B3737B600223BB600023FB6058
:1010900003233B610C237B613B1D1946064805F089
:1010A000FDF900E000BF1837BD4680BDD00100202B
:1010B0000038024000100240000C024080B582B0AF
:1010C00000AF7860FFF7AEFF00BF0837BD4680BDB8
:1010D00080B500AF08F04EFA00BFFDE780B400AF66
:1010E00000BFFDE780B400AF00BFFDE780B400AFF4
:1010F00000BFFDE780B400AF00BFFDE780B400AFE4
:1011000000BFBD465DF8047B704780B400AF00BFF0
:10111000BD465DF8047B704780B400AF00BFBD469C
:101120005DF8047B7047000080B500AF01203FF000
:101130005BF8284B1B88002B05D0264B1B88013BF6
:101140009AB2244B1A80244B1B88002B05D0224BCB
:101150001B88013B9AB2204B1A8004F0D9FC1F4B2C
:101160001B6903F00103012B18D01D4B1B78042BC6
:1011700018D11C4B1B889BB2002B07D0194B1B8826
:101180009BB2013B9AB2174B1A800BE0144B002222
:101190001A70124B4FF400329A6103E0114B4FF476
:1011A000FA721A80104B1B889BB2B3F57A7F07D274
:1011B0000D4B1B889BB201339AB20B4B1A8007E090
:1011C000094B00221A80094B1B680133074A136040
:1011D00000BF80BD540A0020560A002000100240C3
:1011E00068080020740000106008002064080020D7
:1011F00080B500AF0BF0D6F900BF80BD80B500AF61
:10120000044804F0E1FE044B1B6818463EF0FEFE65
:1012100000BF80BD20010020C413002080B500AFB6
:10122000024806F049FC00BF80BD00BF905D012070
:1012300080B586B000AFF860B9607A6000237B614A
:101240000AE0AFF300800146BB685A1CBA60CAB21C
:101250001A707B6901337B617A697B689A42F0DBA3
:101260007B6818461837BD4680BD80B586B000AF94
:10127000F860B9607A6000237B6109E0BB685A1CA2
:10128000BA601B781846AFF300807B6901337B613D
:101290007A697B689A42F1DB7B6818461837BD464D
:1012A00080BD80B483B000AF78604FF0FF33184644
:1012B0000C37BD465DF8047B704780B483B000AF47
:1012C000786039603B684FF400525A60002318463A
:1012D0000C37BD465DF8047B704780B483B000AF27
:1012E0007860012318460C37BD465DF8047B7047D3
:1012F00080B485B000AFF860B9607A60002318460A
:101300001437BD465DF8047B7047000080B586B099
:1013100000AF7860144A154BD31A7B617B693B613F
:10132000134B1B68002B02D1114B124A1A60104B51
:101330001A687B6813443A699A4207D25CF01CFD34
:1013400003460C221A604FF0FF3309E0084B1B687C
:10135000FB60074B1A687B681344054A1360FB68FF
:1013600018461837BD4680BD00000220000400006A
:10137000D4010020E065012080B400AF064BD3F813
:101380008830054A43F47003C2F8883000BFBD4678
:101390005DF8047B704700BF00ED00E0DFF834D05B
:1013A000FFF7EAFF0C480D490D4A002302E0D4582C
:1013B000C4500433C4188C42F9D30A4A0A4C00239F
:1013C00001E013600432A242FBD35CF0DBFCFFF7C8
:1013D000CBF970470000022000000010B802001096
:1013E00028E2080800000020E0650120FEE790B434
:1013F00082B000AF0446084611462246FA71024602
:10140000BA710A467A717A79D208D2B202F01F0212
:10141000D0B2BA799208D2B202F03F02D1B2FA79D0
:10142000D208D2B202F01F02D2B260F3040361F319
:101430004A1362F3CF2318460837BD4690BC704765
:1014400080B485B000AF78607B681B0A9BB223F440
:10145000FF6323F007039AB27B685B099BB203F436
:10146000FC639BB213439AB27B68DB089BB203F028
:101470001F039BB213439BB2BB81BB891846143731
:10148000BD465DF8047B704780B500AFFF22FF21A9
:10149000FF20FFF7ACFF0346184680BD80B500AFC4
:1014A000002200210020FFF7A2FF0346184680BD5E
:1014B00080B582B000AF78600023002209217868EF
:1014C00016F084FB00BF0837BD4680BD80B582B0F2
:1014D00000AF7860044A002178681AF005FE00BF6A
:1014E0000837BD4680BD00BFFFFF0F0080B500AFCD
:1014F0003EF01AFD034618460EF064F903461846FE
:1015000080BD0000B0B588B000AF786007F1080377
:1015100000221A605A609A60DA601A615A612A4B96
:101520001B7B1946294A0B465B000B44DB00134426
:101530001D4607F108040FCC28606960AA60EB60C3
:1015400003CC28616961204B1B7B002B06D01E4B0E
:101550001B7B013BDAB21C4B1A7311E01C4B1B685E
:101560001C49184654F008FD1B4B1B6819491846C6
:1015700054F002FD144B00221A80134B00229A8073
:10158000114B5B7B002B05D00F4B5B7B013BDAB231
:101590000D4B5A73114B1B680B4A127B11461846B0
:1015A0004BF010FB084B1B7B1A4613465B001344A1
:1015B000DB00064A1344184600F0CAFD01F038FB70
:1015C00000BF2037BD46B0BD780000106C08002079
:1015D000FC4101209CF4050804420120E441012063
:1015E00080B582B000AF786003F048FE00BF0837D6
:1015F000BD4680BDF0B587B004AF03460A46FB7117
:101600001346BB71FB79002B46D04A4B1B7B194616
:10161000494A0B465B000B44DB00134406331B882E
:10162000D8B2444B1B7B1946434A0B465B000B4424
:10163000DB00134408331B88DCB23E4B1B7B19468E
:101640003D4A0B465B000B44DB0013440A331B8806
:10165000DAB2384B1B7B1D4637492B465B002B44C7
:10166000DB000B4404331B88D9B2324B1B7B1E4674
:10167000314D33465B003344DB002B4402331B887F
:10168000DBB20125039502930191009223460246A5
:101690004D211E2000F084FEBB79002B46D0254B47
:1016A0001B7B1946244A0B465B000B44DB001344AA
:1016B00010331B88D8B21F4B1B7B19461E4A0B46A2
:1016C0005B000B44DB00134412331B88DCB2194B64
:1016D0001B7B1946184A0B465B000B44DB00134486
:1016E00014331B88DAB2134B1B7B1D4612492B4661
:1016F0005B002B44DB000B440E331B88D9B20D4B2F
:101700001B7B1E460C4D33465B003344DB002B44F1
:101710000C331B88DBB200250395029301910092E4
:1017200023460246BF211E2000F03AFE00BF0C37C0
:10173000BD46F0BD780000106C08002080B582B076
:1017400000AF374842F0F0FD0121354843F0FFFB80
:101750000020FFF775FE03461946314843F01AFC96
:1017600001212F4843F005FC2E4842F0DDFD012108
:101770002C4843F0ECFB4FF47F00FFF761FE03467B
:101780001946284843F006FC0121264843F0F1FBA6
:10179000254842F0C9FD0121234843F0D8FBFF2032
:1017A000FFF74EFE034619461F4843F0F3FB0121A5
:1017B0001D4843F0DEFB1D4B1B6818464FF08EFDA5
:1017C00078601A4B1B6818464FF088FD0346184A8C
:1017D0001360164B1B6818464FF080FD0346154AF0
:1017E00013600722144978684FF08CFD00220C49E1
:1017F00078681AF0DFFB0E4B1B6800220949184677
:101800001AF0D8FB0B4B1B680022074918461AF048
:10181000D1FB03F003F900BF0837BD4680BD00BF10
:10182000D8010020E0010020E8010020D84101207B
:10183000F0010020F40100204C00001080B584B0BD
:1018400000AF786078680EF0A1FCF860F8683CF0B2
:10185000B3FBB8600A49B868FEF7BAFC0346002B30
:1018600006D1084B00221A70074B4FF400329A61E0
:10187000F8683CF0B6FB00BF1037BD4680BD00BF26
:10188000A0F40508680800200010024080B586B06A
:1018900002AF78600B4B1868002300930A4B0B4A89
:1018A0000B493CF0B1F9F86000231C220949F868A3
:1018B0000EF0D6FCF868FFF7FBFD00BF1037BD4601
:1018C00080BD00BF0441012040000010ACF40508B9
:1018D000C8F405083D18000890B583B000AF604B10
:1018E0001B68184648F05AFB03465E4A13605D4B7E
:1018F0001B681846FFF7EAFD5A4B1B68CB211846B8
:1019000016F03EF8574B1B688E21184616F05DF80E
:10191000544B1B684FF49271184615F08EFD514BD5
:101920001B68A921184615F0ADFD4E4B1B6804211C
:10193000184612F009FF4B4B1B684B49184648F0FC
:1019400041FB484B1B680921184616F02FF9454BFF
:101950001B684FF4A022052118461CF012FB414BD6
:101960001B6800220A2118461CF00FF93D4B1B682A
:1019700000220A2118461CF01CF93A4B1B68002271
:101980000A2118461CF0D9F8364B1B6800220A21A0
:1019900018461CF0E6F8334B1B6800220A21184653
:1019A0001CF01BF92F4B1B6800220A2118461CF063
:1019B00028F92C4B1B684FF4A022002118461CF07C
:1019C00048F9284B1B684FF4A022012118461CF04F
:1019D000B3F9244B1C680020FFF732FD03464FF497
:1019E0007022194620461CF0CFF91E4B1B684FF49D
:1019F0007022002118461CF0DBF91A4B1B684FF4CB
:101A0000A022002118461CF00EFA164B1C6817483D
:101A1000FFF716FD0346164A194620461CF005F945
:101A2000104B1B68124AFF2118461CF012F90D4B8F
:101A3000186800231C220F490EF012FC094B1B688A
:101A40000022002118461CF0E9FA064B1B687B6057
:101A50007B6800229A6300BF0C37BD4690BD00BF73
:101A60005C410120C4410120040000107B79FF008B
:101A7000200005001D23000880B584B000AF786009
:101A8000104B1B68184654F0A2FC034618465BF046
:101A900077FE0346FB81FB89B3F5967F06D9094B98
:101AA0001B680949184654F067FA02E0074AFB89A7
:101AB000138000210120FFF79DFD00BF1037BD46B8
:101AC00080BD00BFFC410120D8F40508780000105B
:101AD00080B584B000AF7860144B1B68184654F092
:101AE00076FC034618465BF04BFE0346FB81FB8900
:101AF000142B06D90D4B1B680D49184654F03CFABF
:101B00000BE00C4B1B7B19460B4A0B465B000B444E
:101B1000DB0013440633FA891A8000210120FFF705
:101B200069FD00BF1037BD4680BD00BF6C4101207C
:101B3000DCF40508780000106C08002080B584B043
:101B400000AF7860144B1B68184654F040FC034605
:101B500018465BF015FE0346FB81FB89142B06D962
:101B60000D4B1B680D49184654F006FA0BE00C4B60
:101B70001B7B19460B4A0B465B000B44DB001344EE
:101B80000833FA891A8000210120FFF733FD00BFD6
:101B90001037BD4680BD00BF74410120DCF405084C
:101BA000780000106C08002080B584B000AF786029
:101BB000144B1B68184654F00AFC034618465BF0A9
:101BC000DFFD0346FB81FB89142B06D90D4B1B68F7
:101BD0000D49184654F0D0F90BE00C4B1B7B19460D
:101BE0000B4A0B465B000B44DB0013440233FA89BB
:101BF0001A8000210120FFF7FDFC00BF1037BD4611
:101C000080BD00BF7C410120DCF405087800001095
:101C10006C08002080B584B000AF7860144B1B685E
:101C2000184654F0D4FB034618465BF0A9FD034662
:101C3000FB81FB89142B06D90D4B1B680D491846F7
:101C400054F09AF90BE00C4B1B7B19460B4A0B46E0
:101C50005B000B44DB0013440433FA891A80002133
:101C60000120FFF7C7FC00BF1037BD4680BD00BF95
:101C700084410120DCF40508780000106C08002085
:101C800080B584B000AF78600F4B1B68184654F0E5
:101C90009EFB034618465BF073FD0346FB81FB8900
:101CA000322B06D9084B1B680849184654F064F9D2
:101CB00002E0074AFB89938001210020FFF79AFC8C
:101CC00000BF1037BD4680BD04420120E0F4050886
:101CD0007800001080B584B000AF7860144B1B68AA
:101CE000184654F074FB034618465BF049FD034662
:101CF000FB81FB89B3F57A7F06D90D4B1B680D4933
:101D0000184654F039F90BE00B4B1B7B19460B4A74
:101D10000B465B000B44DB0013441033FA891A8036
:101D200001210020FFF766FC00BF1037BD4680BDD3
:101D300090410120E4F40508780000106C080020B0
:101D400080B584B000AF7860144B1B68184654F01F
:101D50003EFB034618465BF013FD0346FB81FB89FF
:101D6000B3F57A7F06D90D4B1B680D49184654F020
:101D700003F90BE00B4B1B7B19460B4A0B465B0030
:101D80000B44DB0013441233FA891A80012100202E
:101D9000FFF730FC00BF1037BD4680BD98410120E1
:101DA000E4F40508780000106C08002080B584B0C9
:101DB00000AF7860144B1B68184654F008FB0346CC
:101DC00018465BF0DDFC0346FB81FB89142B06D92A
:101DD0000D4B1B680D49184654F0CEF80BE00C4B28
:101DE0001B7B19460B4A0B465B000B44DB0013447C
:101DF0000C33FA891A8001210020FFF7FBFB00BF9A
:101E00001037BD4680BD00BFA0410120DCF40508AD
:101E1000780000106C08002080B584B000AF7860B6
:101E2000144B1B68184654F0D2FA034618465BF070
:101E3000A7FC0346FB81FB89142B06D90D4B1B68BD
:101E40000D49184654F098F80BE00C4B1B7B1946D3
:101E50000B4A0B465B000B44DB0013440E33FA893C
:101E60001A8001210020FFF7C5FB00BF1037BD46D7
:101E700080BD00BFA8410120DCF4050878000010F7
:101E80006C08002080B584B000AF7860154B1B68EB
:101E9000022118460AF02CFCF860F86854F097FA12
:101EA000034618465BF06CFC03467B817B89142B50
:101EB00004D90D49F86854F05FF80BE00B4B1B7B1D
:101EC00019460B4A0B465B000B44DB0013440A33F4
:101ED0007A891A8000210120FFF78CFB00BF1037A0
:101EE000BD4680BDB4410120DCF405087800001037
:101EF0006C08002080B584B000AF7860154B1B687B
:101F0000022118460AF0F4FBF860F86854F05FFA12
:101F1000034618465BF034FC03467B817B89142B17
:101F200004D90D49F86854F027F80BE00B4B1B7BE4
:101F300019460B4A0B465B000B44DB001344143379
:101F40007A891A8001210020FFF754FB00BF103767
:101F5000BD4680BDB8410120DCF4050878000010C2
:101F60006C08002080B584B000AF7860164B1B6809
:101F7000022118460AF0BCFBF860F86854F027FA12
:101F8000034618465BF0FCFB03467B817B89142BE0
:101F900004D90E49F86853F0EFFF0DE00C4B1B7BA2
:101FA00019467B89D8B20B4A0B465B000B44DB0019
:101FB0001344163302461A7001210020FFF71AFB62
:101FC00000BF1037BD4680BDBC410120DCF40508D0
:101FD000780000106C08002080B483B000AF7860F7
:101FE0000A4B00221A700A4B00221A70094B002279
:101FF0001A70094B5A7B094B1A70074B03229A74CB
:1020000000BF0C37BD465DF8047B70474F0A0020C7
:10201000500A0020510A002078000010520A0020C7
:1020200080B582B000AF7860074B1B6804221A703D
:10203000054B1B6803225A70022002F067F900BFAB
:102040000837BD4680BD00BF9000001080B584B049
:1020500000AF78603B4B1B6818464AF0E0FD034632
:10206000FB73394B1B7BBB73BA7B13465B0013447A
:10207000DB00364A1344BB60FB7B002B0DD1334B96
:10208000BB60314B00221A732F4B01225A73B86880
:1020900000F05EF800F0CCFD50E0FA7BBB7B9A428A
:1020A00032D3B86800F06AFD0346002B0BD1254BF4
:1020B0001B68BA7B92B2114618464AF083FDB86895
:1020C00000F046F83AE01F4B1A68BB7B0133BB7344
:1020D000BB7B9BB2194610464AF074FD1A4ABB7B83
:1020E0001373BB7B0133DAB2174B5A73BA7B1346B7
:1020F0005B001344DB00154A1344BB60B86800F072
:1021000027F800F095FD19E0FA7BBB7B9A4215D2C7
:10211000FA7B13465B001344DB000C4A1344BB609C
:10212000FB7B0133DAB2084B5A73074AFB7B13730C
:10213000B86800F00DF800F07BFD00BF1037BD4619
:1021400080BD00BFE4410120780000106C08002031
:1021500080B584B000AF7860244B1A687B681B7828
:10216000194610464AF02EFD214B1A687B685B78B1
:10217000194610464AF026FD7B68023301211846B5
:1021800000F00EFB7B680C330021184600F008FBC2
:102190007B689B7DFB73FB7B002B0BD1154B1B6876
:1021A000022118460AF0A4FA03461349184653F0D0
:1021B000E3FE13E0FB7B07F108010A2218465BF0FF
:1021C000FBFA0C4B1B68022118460AF091FA0246F2
:1021D00007F108031946104653F0CEFE01210120F5
:1021E000FFF708FA00BF1037BD4680BDEC41012063
:1021F000F4410120BC4101209CF4050880B584B065
:1022000000AF78601D4B1B6818464AF008FD034676
:10221000FB731B4B1B7B19461A4A0B465B000B4496
:10222000DB00134401331B78FA7B9A420ED1FB7B0F
:10223000052B03D8FB7B0133FB7302E0FB7B013BE7
:10224000FB7340F6B831104800F0E0FB0C4B1B7BF1
:1022500019460C4A0B465B000B44DB001344FA7B27
:102260001A70064B1B68FA7B92B2114618464AF068
:10227000A9FC00BF1037BD4680BD00BFEC41012066
:10228000780000106C080020ECF4050880B584B0DC
:1022900000AF78601D4B1B6818464AF0C0FC03462F
:1022A000FB731B4B1B7B19461A4A0B465B000B4406
:1022B000DB0013441B78FA7B9A420ED1FB7B052B83
:1022C00003D8FB7B0133FB7302E0FB7B013BFB7319
:1022D00040F6B831104800F099FB0D4B1B7B1946B6
:1022E0000C4A0B465B000B44DB0013440133FA7BC2
:1022F0001A70064B1B68FA7B92B2114618464AF0D8
:1023000061FC00BF1037BD4680BD00BFF441012015
:10231000780000106C08002028F5050880B586B00C
:1023200000AF786078680DF025FF78617B693B61CC
:10233000786948F0D5F80346FB81FB894FF6FF72B8
:10234000934223D0786948F0CBF803461946786960
:1023500048F0D4F8B860BB68002B19D03B699B6B80
:10236000002B17D00D49B868FDF732FF0346002B4C
:1023700005D13B699B6B184653F060FD0BE03B6950
:102380009B6BB968184653F0A3FC04E000BF02E061
:1023900000BF00E000BF1837BD4680BD98F40508B7
:1023A00090B58BB000AF0446084611461A46234646
:1023B000FB810346BB810B46FB721346BB720023B5
:1023C00087F82330FB7A002B02D0BB7A002B12D186
:1023D00097F84430002B06D09E4B1B68012118460D
:1023E00012F044F905E09C4B1B680121184612F0DD
:1023F0003DF9FB89CBE197F84430002B09D0974B8E
:102400007B62974B1B88974AA2FB03239B083B8464
:1024100014E0954B7B62924B1B7B1946934A0B460B
:102420005B000B44DB00134416331B781A46FB8910
:102430001344FB818A4B9B885B083B8497F84020C0
:1024400097F83C301344F97ABA7A0A4403FB02F253
:1024500097F838301344BB61FB89C3F50A73023324
:1024600007EE903AF8EEE77AC7ED057ABB6907EE1A
:10247000903AF8EE677A97ED057AB4EEE77AF1EEE6
:1024800010FA09D5BB6907EE903AB8EE677AD7ED36
:10249000056AC6EE877A01E0F7EE007AC7ED047AA6
:1024A000FB7A07EE903AB8EEE77AD7ED047A67EE5A
:1024B000277AFCEEE77AC7ED017A3B79FB72BB7AAB
:1024C00007EE903AB8EEE77AD7ED047A67EE277A0E
:1024D000FCEEE77AC7ED017A3B79BB7297F83830AA
:1024E00007EE903AB8EEE77AD7ED047A67EE277AEE
:1024F000FCEEE77AC7ED017A3B7987F838303B8C00
:10250000002B12D197F84430002B06D0514B1B689A
:102510000121184612F0AAF805E04F4B1B68012173
:10252000184612F0A3F8FB8931E197F84430002BEC
:1025300006D0484B1B680121184612F005F905E04A
:10254000454B1B680121184612F0FEF80023FB776B
:1025500071E097F823309B007A6A1344B7F90E2094
:102560001A8097F823305A1C87F823209B007A6A38
:102570001344B7F90C205A8097F823309B007A6AED
:102580001344B7F90E201A80BA893B8CD31A99B23A
:1025900097F823305A1C87F823209B007A6A13444B
:1025A0000AB25A80FB7A9AB2FB891344FB8197F8EE
:1025B00023309B007A6A1344B7F90E201A80BA8937
:1025C0003B8CD31A99B297F823305A1C87F82320F2
:1025D0009B007A6A13440AB25A8097F823309B0012
:1025E0007A6A1344B7F90E201A8097F823305A1CE0
:1025F00087F823209B007A6A1344B7F90C205A808D
:10260000BB7A9AB2FB891344FB8197F823309B0075
:102610007A6A1344B7F90E201A8097F823305A1CAF
:1026200087F823209B007A6A1344B7F90C205A805C
:10263000FB7F0133FB77FA7F97F840309A4288D3CB
:1026400097F838309AB2FB891344FB810023BB779B
:1026500080E000BFF0010020F4010020F80100201C
:1026600078000010ABAAAAAA180500206C08002068
:1026700097F823309B007A6A1344B7F90E201A802A
:1026800097F823305A1C87F823209B007A6A13445A
:10269000B7F90C205A8097F823309B007A6A1344CC
:1026A000B7F90E201A80BA893B8C134499B297F877
:1026B00023305A1C87F823209B007A6A13440AB2FD
:1026C0005A80FB7A9AB2FB891344FB8197F8233036
:1026D0009B007A6A1344B7F90E201A80BA893B8CA2
:1026E000134499B297F823305A1C87F823209B0093
:1026F0007A6A13440AB25A8097F823309B007A6AA8
:102700001344B7F90E201A8097F823305A1C87F823
:1027100023209B007A6A1344B7F90C205A80BB7AB5
:102720009AB2FB891344FB8197F823309B007A6AA5
:102730001344B7F90E201A8097F823305A1C87F8F3
:1027400023209B007A6A1344B7F90C205A80BB7F80
:102750000133BB77BA7F97F83C309A4288D397F819
:102760004430002B09D00C4B1B6897F8232092B201
:10277000796A18464EF0C6FD08E0084B1B6897F8CA
:10278000232092B2796A18464EF0BCFDFB891846A8
:102790002C37BD4690BD00BFF0010020F4010020A1
:1027A00080B594B000AF78600B46FB707B68043353
:1027B000BB637B680633FB637B683B647B680233E7
:1027C0007B647B680833BB643D4B1B683B613D4BBE
:1027D0001B687B613C4B1B68BB613C4B1B68FB610E
:1027E0003B4B1B680221184609F082FF03463B62FF
:1027F000384B1B687B62384B1B68BB62374B1B68CE
:10280000FB62374B1B683B63364B1B680221184643
:1028100009F06EFF03467B63002387F84F30FB7897
:1028200083F00103DBB2002B02D0052387F84F3081
:10283000002387F84E3039E097F84E309B00503334
:102840003B4453F8183C1B88A7F84C30B7F84C3081
:10285000002B0ED197F84E2097F84F3013449B0071
:1028600050333B4453F8403C1F49184653F084FB17
:1028700017E0B7F84C3007F108010A2218465AF061
:102880009BFF97F84E2097F84F3013449B0050332E
:102890003B4453F8403C07F108021146184653F0F8
:1028A0006BFB97F84E30013387F84E3097F84E3077
:1028B000042BC1D900BF00BF5037BD4680BD00BF4B
:1028C0006C410120744101207C41012084410120A0
:1028D000B44101209041012098410120A0410120F4
:1028E000A8410120B84101209CF4050880B584B0BE
:1028F00000AF7860194B1B6818461BF0A2FB174B02
:1029000000221A60164B00221A60164B00221A6031
:10291000154B1A78154B1B789A421BD0124B1B781B
:102920001A46134B53F82230FB600F4B1B785A1C8E
:10293000104B83FB02135910D317C91A0B469B0087
:102940000B44D11ACAB2084B1A7040F6B831F86875
:1029500000F05CF800BF1037BD4680BD5008002075
:1029600054080020580800204C0800204D08002082
:10297000380800206766666680B584B000AF78606E
:102980001B4B1B6818461BF05CFB194B00221A609E
:10299000184B00221A60184B00221A60786842F027
:1029A000F9FC164B1A78164B1B789A421BD0134B26
:1029B0001B781A46134B53F82230FB600F4B1B78E1
:1029C0005A1C114B83FB02135910D317C91A0B461B
:1029D0009B000B44D11ACAB2084B1A7040F6B831AA
:1029E000F86800F013F800BF1037BD4680BD00BF87
:1029F0005008002054080020580800204C080020EF
:102A00004D080020380800206766666680B584B0EF
:102A100000AF786039604F4B1B68002B17D04E4BCE
:102A20001B7819464D4A7B6842F821304A4B1B7887
:102A30005A1C4B4B83FB02135910D317C91A0B4670
:102A40009B000B44D11ACAB2434B1A707EE0FEF7CA
:102A50004DFD0346184611F0F5FD03463D4A13604F
:102A60003C4B1B6896224FF4C871184614F070FF57
:102A7000384B186800230022092115F0A7F8354BC0
:102A80001B681021184611F05FFE324B1B68184678
:102A90004CF0FEFC0346334A1360324B1B687968E6
:102AA00018464CF009FD2F4B1B68002118464CF0CE
:102AB000A9FD2C4B1B684FF4BE71184614F060FF43
:102AC000284B18686FF013030022092115F07EF8D7
:102AD000244B1B680022022118461BF03FFA1D4BB5
:102AE0001B68184647F068F903461F4A13601E4BDF
:102AF0001B681E223C21184614F02AFF1A4B186846
:102B000028230022092115F061F8174B1B6818468D
:102B10004CF0BEFCF8601549F8684CF0CDFCF86844
:102B2000FEF7C6FC104B18680023072210490DF071
:102B300097FB3B68002B09D0064B1B681A46396887
:102B40000C4842F0EDFB03460B4A13601037BD46BC
:102B500080BD00BF500800204D080020380800202C
:102B600067666666540800205808002064F505086A
:102B7000ED280008792900085C08002080B582B0A3
:102B800000AF78607B681B78002B0AD17B685B788C
:102B9000002B06D140F6B8312148FFF737FF00235C
:102BA00039E07B685B88002B03D17B689B88002B16
:102BB0000ED07B68DB88002B03D07B681B89002B41
:102BC00006D140F6B8311748FFF720FF002322E076
:102BD0007B689B89002B03D17B68DB89002B0ED09F
:102BE0007B681B8A002B03D07B685B8A002B06D195
:102BF00040F6B8310C48FFF709FF00230BE07B6873
:102C00009B7D002B06D140F6B8310848FFF7FEFE49
:102C1000002300E0012318460837BD4680BD00BFF1
:102C20006CF50508A8F50508E0F5050818F605088F
:102C300080B483B000AF0023FB800023BB80234B14
:102C40005B7BBB700023FB7030E0FA7820491346B1
:102C50005B001344DB000B4402331988FA781C48EC
:102C600013465B001344DB0003440C331B880B4406
:102C70009AB2FB881344FB80FA78154913465B002F
:102C80001344DB000B4404331988FA7810481346C8
:102C90005B001344DB0003440E331B880B449AB2E1
:102CA000BB881344BB80FB780133FB70FA78BB7898
:102CB0009A42CAD3054AFB88D381044ABB8813824F
:102CC00000BF0C37BD465DF8047B704778000010EC
:102CD0006C08002080B483B000AF78607B685B88AC
:102CE000142B03D87B689B88142B01D9002344E064
:102CF0007B68DB88142B03D87B681B89142B01D9D4
:102D000000233AE07B685B89142B01D9002334E06F
:102D10007B689B89142B03D87B68DB89142B01D932
:102D200000232AE07B681B8AB3F57A7F04D87B688E
:102D30005B8AB3F57A7F01D900231EE07B689B8A0A
:102D4000142B01D9002318E07B681B78072B03D8CC
:102D50007B685B78072B01D900230EE07B681A782B
:102D60007B685B789A4201D1002306E07B689B7DFB
:102D7000142B01D9002300E0012318460C37BD466F
:102D80005DF8047B7047000080B582B000AF034659
:102D9000FB71094B1B68FA7992B21146184649F04B
:102DA00011FF054B1B6800221C2118460DF062F92B
:102DB00000BF0837BD4680BDE441012080B586B024
:102DC00002AF424B1B68184646F0F6FFF860282217
:102DD0007821F86814F0BCFD3C4B19681E23009361
:102DE000A5230922F86814F011FFFEF74DFB0346F6
:102DF00000221946F8681AF018FFFEF74FFB034649
:102E000000221946F8681AF070FFFEF747FB0346E8
:102E100000221946F8681BF040F8F8684CF038FBBF
:102E2000B8602B49B8684CF047FB00230A22072101
:102E3000B86814F0CBFE002307222649F8680DF08D
:102E40000FFA224B1B68184646F0B6FF786028221E
:102E50007821786814F07CFD1C4B19686FF01D0315
:102E60000093A5230922786814F0D0FEFEF70CFB2E
:102E700003460022194678681AF0D7FEFEF70EFBCB
:102E800003460022194678681AF02FFFFEF706FB6A
:102E900003460022194678681AF0FFFF78684CF064
:102EA000F7FA38600C4938684CF006FB00230A2218
:102EB0000721386814F08AFE002307220749786842
:102EC0000DF0CEF900BF1037BD4680BDC0410120D6
:102ED00028F605080515000834F60508E115000870
:102EE00080B500AF6B4B1B78002B3FD06A4B1B7833
:102EF000042B3BD801A252F823F000BF112F000889
:102F0000232F00082B2F0008492F00085F2F0008EF
:102F100000F0D6F8614B32221A705F4B01221A7012
:102F200024E05D4B02221A7020E05C4B1B78002BE2
:102F300006D05A4B1B78013BDAB2584B1A7015E099
:102F4000554B04221A7011E0554B9B7C062B02D185
:102F5000534B01229A74504B00221A7006E04E4BDC
:102F600000221A704E4B06229A7400BF4C4B9B7C79
:102F7000062B00F28C8001A252F823F07930000871
:102F800079300008992F0008FD2F00085B300008F9
:102F90007930000879300008414B5B881946404B76
:102FA0001B881A4613465B0013445A0113443D4ADA
:102FB00082FB03025211DB17D31A99425EDB384BB6
:102FC000DB881946364B9B881A4613465B00134430
:102FD0005A011344334A82FB03025211DB17D31AFE
:102FE00099424DDB00F0E4F82F4B00221A702F4B72
:102FF00000221A702A4B04229A7448E02C4B1B784A
:10300000002B24D02B4B1B7883F00103DBB2002B69
:103010000CD0294B1B785A1CD1B2274A1170184684
:1030200000F0EAF8234B01221A7030E0234B1B78A2
:1030300083F00103DBB2002B24D11D4B1B78013B35
:10304000DAB21B4B1A701B4B00221A701FE000F003
:10305000C1F8134B02229A7419E0144B1B7883F0C9
:103060000103DBB2002B0FD10F4B1B78002B0DD0CF
:103070000B4B01229A7409E000BF08E000BF06E094
:1030800000BF04E000BF02E000BF00E000BF00BFDF
:1030900080BD00BF8D0000104C0A00208C00001085
:1030A000780000101F85EB514D0A00204E0A0020C9
:1030B000520A0020500A0020510A00204F0A002026
:1030C00080B500AF044B1B6800221A70012001F08C
:1030D0001DF900BF80BD00BF9000001080B400AF9C
:1030E0002E4B03221A702E4B1B681B791B029AB2BF
:1030F0002C4B1A812B4B1B89294A12685279134396
:103100009AB2284B1A81264B1B685B781B029AB235
:10311000244B5A80234B5B88214A126892781343D0
:103120009AB2204B5A801E4B1B68DB781A461D4B07
:10313000DA801B4B1B689B791B029AB2194B5A8190
:10314000184B5B89164A1268D27913439AB2154B11
:103150005A81144B9B7C042B1BD1134B1B7883F09F
:103160000103DBB2002B0AD00D4B1B681B7A03F066
:103170001003002B0DD00C4B01221A7009E0084BF4
:103180001B681B7A03F01003002B02D1074B0122AE
:103190001A7000BFBD465DF8047B70474C0A0020E2
:1031A00094000010780000104E0A00204D0A002004
:1031B00080B500AF064B1B6803221A70044B1B68D6
:1031C00007225A70022001F0A1F800BF80BD00BFA5
:1031D0009000001080B500AF064B1B6803221A70E8
:1031E000044B1B6803225A70022001F08FF800BFC5
:1031F00080BD00BF9000001080B584B000AF0346D2
:10320000FB71FA7913465B001344DB00544A134404
:10321000FB60544B1B6801221A70524B1B68FA79F1
:103220005A70FB681A784F4B1B681201D2B25A7160
:103230004C4B1B685979FB685A784A4B1B680A4308
:10324000D2B25A71484B1B881B0A9AB2454B1B6875
:10325000D2B29A70444B1A88424B1B68D2B2DA70D1
:10326000414B9A883F4B1B68D2B21A71FB681A898E
:103270003C4B1B68D2B2DA73FB68DA88394B1B68A7
:10328000D2B29A73FB685B8A1B0A9AB2354B1B68F1
:10329000D2B29A74FB685A8A324B1B68D2B2DA7483
:1032A000FB681B8A1B0A9AB22E4B1B68D2B21A7497
:1032B000FB681A8A2B4B1B68D2B25A74FB685A8976
:1032C000284B1B68D2B29A72FB689A8A254B1B68FE
:1032D000D2B2DA72234B1B6800221A73FB689A7D04
:1032E000204B1B680132D2B25A731E4B1B689B7A6B
:1032F000002B03D11B4B1B6801229A72194B1B68D0
:10330000DB7A002B03D1174B1B680122DA72154BB5
:103310001B685B7B002B03D1124B1B6801225A7385
:10332000FB685A880F4B1B68D2B29A71FB689A8867
:103330000C4B1B68D2B2DA71FB689A89094B1B6887
:10334000D2B21A72FB68DA89064B1B68D2B25A7283
:10335000142000F0DBFF00BF1037BD4680BD00BF6A
:103360006C080020900000107800001080B500AFBD
:1033700000224FF40041024803F02CFA00BF80BD48
:103380000000024080B500AF01224FF40041024826
:1033900003F020FA00BF80BD0000024080B582B07B
:1033A00000AF0346FB7100BF084B1B689B6803F02E
:1033B0000203022BF8D1F91D64230122034806F011
:1033C0007DF900BF0837BD4680BD00BFC8000020A2
:1033D00080B582B000AF78600B467B8000BF084BA1
:1033E0001B689B6803F00203022BF8D17A886423E0
:1033F0007968034806F062F900BF0837BD4680BD12
:10340000C800002080B584B002AFFF23FB7100BF6D
:10341000094B1B689B6803F00203022BF8D1BA1D0D
:10342000F91D642300930123034806F08BFABB794E
:1034300018460837BD4680BDC800002080B582B060
:1034400000AF7860FFF7DEFF03461A467B681A700C
:1034500000BF0837BD4680BD80B582B000AF0A4BC3
:103460004FF4FA721A80FFF7CDFF0346FB71FB7928
:10347000FF2B03D0044B1B88002BF4D1FB7918469B
:103480000837BD4680BD00BF560A002080B584B015
:1034900000AF41F6FF73FB60FFF774FF0023BB60D2
:1034A00005E0FF20FFF77AFFBB680133BB60BB6814
:1034B000092BF6DDFFF75AFF40233B7000237B709A
:1034C0000023BB700023FB7000233B7195237B71AD
:1034D0003B4606211846FFF77BFF02E0FB68013BF5
:1034E000FB60FFF78FFF0346012B02D0FB68002B28
:1034F000F4D1FFF747FFFF20FFF750FF034B0122F6
:103500001A7000BF1037BD4680BD00BF590A0020A9
:1035100080B400AF034B00221A7000BFBD465DF8B7
:10352000047B7047590A002080B400AF034B1B781E
:103530001846BD465DF8047B704700BF590A00205D
:1035400080B584B000AF78603960134BC8221A8010
:10355000FFF758FF0346FB73FB7BFF2B03D10E4B9A
:103560001B88002BF4D1FB7BFE2B01D000230FE046
:103570007B685A1C7A601846FFF760FF3B685A1E4A
:103580003A60002BF4D1FFF73DFFFFF73BFF01232B
:1035900018461037BD4680BD540A002080B584B05F
:1035A00000AF78600B46FB700023BB73FFF754FF3E
:1035B0000346FF2B01D000232FE0FB781846FFF7CE
:1035C000EDFEFB78FD2B20D04FF400717868FFF7FB
:1035D000FFFEFFF717FFFFF715FF0BE0FFF712FFE6
:1035E0000346FB73FB7B03F01F03052B06D0BB7B5D
:1035F0000133BB73BB7B402BF0D900E000BF00BFA1
:10360000FFF700FF0346002BFAD0FB7B03F01F03FC
:10361000052B01D1012300E0002318461037BD46D9
:1036200080BD80B584B000AF03463960FB71FFF701
:1036300013FF0346FF2B01D0FF2342E0FB7918461E
:10364000FFF7ACFE3B681B0EDBB21846FFF7A6FE89
:103650003B681B0CDBB21846FFF7A0FE3B681B0A59
:10366000DBB21846FFF79AFE3B68DBB21846FFF75D
:1036700095FEFB79402B02D19523FB7307E0FB7984
:10368000482B02D18723FB7301E00123FB73FB7BF3
:103690001846FFF783FEFB794C2B01D1FFF7B2FEF2
:1036A0000A23BB73FFF7AEFE03467B7397F90D3019
:1036B000002B05DABB7B013BBB73BB7B002BF1D13D
:1036C0007B7B18461037BD4680BD000090B585B0A5
:1036D00000AF0346FB71FB79002B01D00123D1E041
:1036E0006A4B1B78DBB203F00203002B03D0674B5D
:1036F0001B78DBB2C6E0FFF7C9FEFFF737FE0023F9
:10370000BB7300214020FFF78CFF0346012B40F0E4
:10371000A1805F4B4FF47A721A804FF4D571482024
:10372000FFF77FFF0346012B55D10023FB730CE00D
:10373000FC7BFFF767FE03461A4604F110033B4487
:1037400003F8082CFB7B0133FB73FB7B032BEFD9C6
:10375000BB7A012B7ED1FB7AAA2B7BD1002177206B
:10376000FFF75FFF0346012B07D84FF08041692028
:10377000FFF757FF0346002B04D0454B1B88002B57
:10378000ECD100E000BF424B1B88002B62D000212F
:103790007A20FFF746FF0346002B5BD10023FB7323
:1037A0000CE0FC7BFFF72EFE03461A4604F11003E3
:1037B0003B4403F8082CFB7B0133FB73FB7B032B9F
:1037C000EFD93B7A03F04003002B01D00C2300E03B
:1037D0000423BB733EE000217720FFF722FF03465E
:1037E000012B08D800216920FFF71BFF0346012B9E
:1037F00001D8022300E00123BB73BB7B022B0ED157
:1038000000217720FFF70DFF0346012B0ED8002182
:103810006920FFF706FF0346002B07D10CE00021CB
:103820004120FFF7FEFE0346002B04D0184B1B88F7
:10383000002BE2D100E000BF154B1B88002B07D006
:103840004FF400715020FFF7ECFE0346002B01D02F
:103850000023BB730F4ABB7B1370FFF793FDFFF789
:10386000D1FDBB7B002B08D0084B1B78DBB223F0CB
:103870000103DAB2054B1A7001E0FFF749FE034B72
:103880001B78DBB218461437BD4690BD8E00001081
:10389000540A0020580A002080B483B000AF0346C9
:1038A000FB71FB79002B01D0012302E0044B1B7854
:1038B000DBB218460C37BD465DF8047B704700BF8D
:1038C0008E00001080B584B000AFB9607A603B60B4
:1038D0000346FB73FB7B002B02D13B68002B01D11D
:1038E000042351E02A4B1B78DBB203F00103002BC9
:1038F00001D0032348E0274B1B7803F00403002B7F
:1039000002D17B685B027B60FFF730FD3B68012BD7
:1039100011D179685120FFF784FE0346002B29D18D
:103920004FF40071B868FFF70BFE0346002B21D05F
:1039300000233B601EE079685220FFF772FE0346C9
:10394000002B17D14FF40071B868FFF7F9FD03465B
:10395000002B0AD0BB6803F50073BB603B68013BDA
:103960003B603B68002BEDD100E000BF00214C2004
:10397000FFF757FEFFF706FDFFF744FD3B68002BFE
:1039800014BF01230023DBB218461037BD4680BDAB
:103990008E000010580A002080B584B000AFB960D6
:1039A0007A603B600346FB73FB7B002B02D13B68D4
:1039B000002B01D104236BE0374B1B78DBB203F003
:1039C0000103002B01D0032362E0334B1B78DBB2F1
:1039D00003F00403002B01D0022359E02F4B1B7886
:1039E00003F00403002B02D17B685B027B60FFF7CE
:1039F000BDFC3B68012B10D179685820FFF711FE00
:103A00000346002B3AD1FE21B868FFF7C7FD0346F5
:103A1000002B33D000233B6030E0204B1B7803F0B9
:103A20000203002B07D000217720FFF7FAFD396849
:103A30005720FFF7F6FD79685920FFF7F2FD03469E
:103A4000002B1BD1FC21B868FFF7A8FD0346002B13
:103A50000AD0BB6803F50073BB603B68013B3B6069
:103A60003B68002BEED100E000BFFD210020FFF7F6
:103A700095FD0346002B01D101233B60FFF782FC3B
:103A8000FFF7C0FC3B68002B14BF01230023DBB20F
:103A900018461037BD4680BD8E000010580A002021
:103AA00090B58BB000AF03463A60FB710B46BB711B
:103AB0003B683B62FB79002B01D0042313E1012317
:103AC00087F82730BB79052B24D13B6A1B78022B62
:103AD00012D0022B1ADC002B02D0012B06D015E0ED
:103AE000FFF716FD002387F82730FAE0FFF7CEFC3A
:103AF000002387F82730F4E03B6A5C1CFFF714FDD5
:103B000003462370002387F82730EAE0042387F870
:103B10002730E6E0764B1B78DBB203F00103002B85
:103B200001D00323DFE0FFF721FCBB790D2B00F26E
:103B3000C98001A252F823F02F3C0008713B000815
:103B40001F3C0008C53C0008C53C0008C53C0008F7
:103B5000C53C0008C53C0008C53C0008C53C000841
:103B6000C53C0008413C0008653C0008893C000851
:103B700000214920FFF755FD0346002B40F0A680A9
:103B800007F10C0310211846FFF7DAFC0346002B5F
:103B900000F09C803B7B9B09DBB2012B0DD17B7D30
:103BA0001A463B7D1B029BB213449BB20133FB833D
:103BB000FB8B9A023B681A602DE07B7C03F00F03BD
:103BC000DAB2BB7DDB09DBB21344DAB27B7D5B008A
:103BD000DBB203F00603DBB21344DBB2023387F837
:103BE00026303B7D9B09DBB21A46FB7C9B009BB2D7
:103BF00013449AB2BB7C9B029BB203F440639BB21A
:103C000013449BB20133FB83FA8B97F82630093BB0
:103C10009A403B681A60002387F8273056E03B68DB
:103C20004FF400721A80002387F8273055E0FFF721
:103C300013FC0346FF2B4BD1002387F8273047E0C6
:103C400000214920FFF7EDFC0346002B42D1102153
:103C5000386AFFF775FC0346002B3BD0002387F83A
:103C6000273037E000214A20FFF7DBFC0346002B1A
:103C700032D11021386AFFF763FC0346002B2BD0AA
:103C8000002387F8273027E000217A20FFF7C9FCBE
:103C90000346002B16D1002387F826300BE03C6A40
:103CA000631C3B62FFF7AEFB0346237097F8263098
:103CB000013387F8263097F82630032BEFD90023FD
:103CC00087F82730042387F8273006E000BF04E098
:103CD00000BF02E000BF00E000BFFFF753FBFFF7AB
:103CE00091FB97F8273018462C37BD4690BD00BF92
:103CF0008E00001080B485B000AF03463960FB80B1
:103D000013467B71FB88FB8123E0FB891B0A9BB276
:103D1000DAB23B68591C39601B7853407B737B7B5C
:103D20001B09DAB27B7B53407B73FB891B021AB2FF
:103D30007B7B1BB21B031BB253401AB27B7B1BB2B3
:103D40005B011BB253401AB27B7B1BB253401BB2C8
:103D5000FB817B795A1E7A71002BD6D1FB891846DC
:103D60001437BD465DF8047B7047000080B483B013
:103D700000AF0346FB71044AFB79137000BF0C3798
:103D8000BD465DF8047B70475A0A002080B487B0B6
:103D900000AFF860B9607A600023FB75FB68B3F888
:103DA000FE301B0A9BB27B75FB68B3F8FE303B7597
:103DB000FB7D5A1CFA751A46BB681344FA681278E0
:103DC0001A70FB7D5A1CFA751A46BB681344FA68D0
:103DD00052781A70FB7D5A1CFA751A46BB68134458
:103DE000FA6892781A70FB7D5A1CFA751A46BB68FD
:103DF0001344FA68D2781A70FB7D5A1CFA751A4679
:103E0000BB681344FA6812791A700023BB7500234B
:103E1000BB7552E0BB7DFA6813445B79CA2B10D1A5
:103E2000FB7D5A1CFA751A46BB681344BD221A70F2
:103E3000FB7D5A1CFA751A46BB681344DC221A70C3
:103E400038E0BB7DFA6813445B79EF2B10D1FB7D22
:103E50005A1CFA751A46BB681344BD221A70FB7DC2
:103E60005A1CFA751A46BB681344DE221A7021E008
:103E7000BB7DFA6813445B79BD2B10D1FB7D5A1CC6
:103E8000FA751A46BB681344BD221A70FB7D5A1C92
:103E9000FA751A46BB681344DB221A700AE0BA7D31
:103EA000FB7D591CF9751946BB680B44F9680A4437
:103EB00052791A70BB7D0133BB75FB68DB78BA7D24
:103EC0009A42A7D37B7DCA2B10D1FB7D5A1CFA7571
:103ED0001A46BB681344BD221A70FB7D5A1CFA7542
:103EE0001A46BB681344DC221A702FE07B7DEF2B4F
:103EF00010D1FB7D5A1CFA751A46BB681344BD22CB
:103F00001A70FB7D5A1CFA751A46BB681344DE22F0
:103F10001A701BE07B7DBD2B10D1FB7D5A1CFA75FE
:103F20001A46BB681344BD221A70FB7D5A1CFA75F1
:103F30001A46BB681344DB221A7007E0FB7D5A1C4B
:103F4000FA751A46BB6813447A7D1A703B7DCA2BFA
:103F500010D1FB7D5A1CFA751A46BB681344BD226A
:103F60001A70FB7D5A1CFA751A46BB681344DC2292
:103F70001A702FE03B7DEF2B10D1FB7D5A1CFA7598
:103F80001A46BB681344BD221A70FB7D5A1CFA7591
:103F90001A46BB681344DE221A701BE03B7DBD2B22
:103FA00010D1FB7D5A1CFA751A46BB681344BD221A
:103FB0001A70FB7D5A1CFA751A46BB681344DB2243
:103FC0001A7007E0FB7D5A1CFA751A46BB68134449
:103FD0003A7D1A70FB7D5A1CFA751A46BB68134469
:103FE000EF221A707B68FA7D1A7000BF1C37BD463D
:103FF0005DF8047B7047000080B5C6B000AF07F5E0
:104000008C73A3F58673186007F58C73A3F58A7318
:104010001A6007F58C73A3F20D130A461A70002379
:1040200087F81731002387F81631002387F81531F8
:1040300007F58C73A3F20D131B78052B62D80223AE
:104040002EE197F817315A1C87F817211A4607F501
:104050008C73A3F586731B6813441B7887F80F31A4
:1040600097F81531002B38D097F80F31DC2B0CD195
:1040700097F816315A1C87F816211A4607F58C73E3
:10408000A3F58273CA21995423E097F80F31DE2BF0
:104090000CD197F816315A1C87F816211A4607F5E5
:1040A0008C73A3F58273EF21995412E097F80F31C6
:1040B000DB2B0CD197F816315A1C87F816211A46BB
:1040C00007F58C73A3F58273BD21995401E0022397
:1040D000E6E0002387F8153114E097F80F31BD2B87
:1040E00003D1012387F815310CE097F816315A1CDB
:1040F00087F81621194607F58C73A3F5827397F894
:104100000F215A5407F58C73A3F20D1397F817215A
:104110001B789A4295D3002387F8173197F8173107
:104120005A1C87F817211A4607F58C73A3F582737A
:104130009A5C07F58C73A3F58A731B685A7097F81D
:1041400017315A1C87F817211A4607F58C73A3F507
:1041500082739A5C07F58C73A3F58A731B689A7057
:1041600097F817315A1C87F817211A4607F58C73F0
:10417000A3F582739A5C07F58C73A3F58A731B68A9
:10418000DA7097F817315A1C87F817211A4607F585
:104190008C73A3F582739A5C07F58C73A3F58A730D
:1041A0001B681A7107F58C73A3F58A731B68DB789B
:1041B000F82B0BD807F58C73A3F58A731B68DB7893
:1041C0001A4697F81631063B9A4201D0062367E05B
:1041D00007F58C73A3F58A731B68581D97F8173180
:1041E00007F11402D11807F58C73A3F58A731B68C5
:1041F000DB781A4659F0F5FD07F58C73A3F58A7341
:104200001B68DA7897F81731134487F8173197F855
:1042100017315A1C87F817211A4607F58C73A3F536
:1042200082739B5C1B02A7F8123197F817315A1C56
:1042300087F817211A4607F58C73A3F582739B5CE8
:104240001A46B7F812311343A7F8123107F58C73E9
:10425000A3F58A731B68591C07F58C73A3F58A7341
:104260001B68DB780433DBB21A460020FFF742FDFF
:104270000346A7F81031B7F81221B7F810319A4267
:1042800001D005230CE007F58C73A3F58A731B6836
:104290009A78064B1B789A4201D0032300E0002352
:1042A000184607F58C77BD4680BD00BF5A0A00202E
:1042B00080B500AF124B1B681B78062B1DD801A2DE
:1042C00052F823F0E1420008F9420008E7420008F2
:1042D000F9420008F9420008F9420008F9420008D2
:1042E000FEF7FCFE09E0064B1B685A78054B1A7076
:1042F000054B01221A7000E000BF00BF80BD00BF67
:1043000094000010530A00204F0A002080B59CB092
:1043100000AF0346FB711E4BCA221A701D4B1A7860
:104320001B4B5A701A4B01229A70194AFB79D370B1
:10433000174B07221A71164BEF2283F80021144BFA
:10434000DB7804331A4614490020FFF7D3FC0346F8
:104350009AB20F4BA3F8FE200023FB6007F1100375
:1043600060220021184659F0A2FC07F10B0207F168
:104370000C0319460648FFF709FDFA7A07F10C030A
:104380001146184608F098F900BF7037BD4680BD49
:104390005C0A00205A0A00205D0A002080B500AFA8
:1043A00008F050F90C4B0D4A5A600B4B40221A8012
:1043B000094B00221A81084B1B88002B06D0064BA4
:1043C0005B6804220021184659F071FC0320FFF7B6
:1043D000CDFC00BF80BD00BF640C0020700C00202D
:1043E00080B584B000AF78600023BB733223FB73C9
:1043F00041E02A4B1B68184607F0ECFF03467B732D
:104400007B7BCA2B03D1264B00221A8130E07B7BB9
:10441000EF2B14D1224B5B68214A128992B2D1B2A0
:10442000204A1846FFF7E8FD0346BB73BB7B002B11
:1044300001D1FFF73DFF1A4B00221A8118E0184BFB
:104440005B68174A128992B213447A7B1A70144B34
:104450001B899BB201339AB2114B1A81104B1B89F5
:104460009AB20F4B1B889A4202D90D4B00221A8137
:10447000FB7B013BFB73094B1B68184607F06AFF87
:10448000034683F00103DBB2002B02D0FB7B002B41
:10449000AFD100BF1037BD4680BD00BFBC000010CB
:1044A000640C0020600B002080B586B000AF3B1D7F
:1044B00083E8070000F0F6F800233B6107F11003E2
:1044C000184600F009F903461A46554B1A70544B2A
:1044D0001B78002B02D0524B1B789CE03B69002BD1
:1044E00001D1022397E04F4B80221A704D4B472297
:1044F0005A7002224B495D2000F0F2F9BA224A4973
:104500005D2000F019FA03461A46454B1A70444BD9
:104510001B78002B02D0424B1B787CE03B69002BC0
:1045200001D1022377E0BB88DAB23E4BDA70BB8858
:104530001B0A9BB2DAB23B4B1A71FB88DAB2394BD9
:104540005A71FB881B0A9BB2DAB2364B9A713A7ADF
:10455000344BDA71334B00221A72324B1B7A5AB247
:10456000BB7ADB015BB213435BB2DAB22D4B1A723A
:104570002C4B1B7A5AB27B7A9B015BB213435BB222
:10458000DAB2284B1A72274B1B7A5AB2FB7ADB003D
:104590005BB213435BB2DAB2224B1A72214B1B7A25
:1045A0005AB23B7B9B005BB213435BB2DAB21D4B4A
:1045B0001A721C4B012283F8BB201A4B002283F88D
:1045C000BA200223FB750DE0164B93F8BA20FB7D51
:1045D0001449CB5C1344DAB2124B83F8BA20FB7D4A
:1045E0000133FB75FB7DB92BEED90E4B93F8BA3036
:1045F0005B42DAB20B4B83F8BA2000F09BF803461B
:104600001A46074B1A70064B1B78002B02D0044B3E
:104610001B7800E0002318461837BD4680BD00BF58
:10462000B00C0020B40C0020B60C002080B582B085
:1046300000AF78603960194B81221A70174B5022F5
:104640005A70022215495D2000F04AF906221449E9
:104650005D2000F071F9124B1B781A467B681A80B6
:104660007B681A880E4B5B781B029BB213449AB28C
:104670007B681A800A4B9B781A463B681A803B6815
:104680001A88074BDB781B029BB213449AB23B6833
:104690001A80002318460837BD4680BDB40C0020A0
:1046A0007C0D002080B500AF00F0BAF8002000F0CB
:1046B000EFF8002000F0D2F80B2000F003F9012001
:1046C00000F0CCF8372000F0FDF800F08DF8322033
:1046D00000F0F8F800BF80BD80B584B000AF78600E
:1046E000124B81221A70114B40225A700223FB7325
:1046F00002220E495D2000F0F3F80346FB73FB7BBA
:10470000002B0DD104220A495D2000F015F9034663
:10471000FB73FB7B002B03D1054B1A687B681A6087
:10472000FB7B18461037BD4680BD00BFB40C00208F
:104730007C0D002080B500AF064B80221A70054B1F
:1047400047225A70BC2203495D2000F0C9F8034695
:10475000184680BDB40C002080B584B000AF7860EE
:10476000124B81221A70114B4E225A700223FB7396
:1047700002220E495D2000F0B3F80346FB73FB7B79
:10478000002B0DD101220A495D2000F0D5F8034627
:10479000FB73FB7B002B03D1054B1A787B681A70E7
:1047A000FB7B18461037BD4680BD00BFB40C00200F
:1047B0007C0D002080B582B000AF0346FB71094B31
:1047C00081221A70074B4E225A70064AFB79937069
:1047D000032204495D2000F083F803461846083799
:1047E000BD4680BDB40C002080B586B000AF3B1D37
:1047F00000221A605A609A60DA601A6102237B60B4
:104800000023BB600023FB603B1D1946034801F0F9
:1048100045FE00BF1837BD4680BD00BF0004024002
:1048200080B586B000AF3B1D00221A605A609A60C6
:10483000DA601A6102237B600123BB600023FB6006
:1048400000233B613B1D1946034801F027FE00BFD2
:104850001837BD4680BD00BF0004024080B582B05D
:1048600000AF0346FB71FB79012B05D10122012129
:10487000064801F0AFFF05E000220121034801F0E6
:10488000A9FF00BF00BF0837BD4680BD000402403D
:1048900080B582B000AF0346FB71FB79012B05D1D7
:1048A00001220221064801F095FF05E000220221C5
:1048B000034801F08FFF00BF00BF0837BD4680BD31
:1048C0000004024080B582B000AF0346FB80FB8845
:1048D000184601F03DF900BF0837BD4680BD000015
:1048E00080B586B002AF03463960FB711346BB80CA
:1048F000FB795B00FB73FB7B99B2BB884FF0FF3207
:1049000000923A680B4802F0DDF80346032B0CDCFA
:10491000022B08DA002B02D0012B02D005E0002385
:1049200004E0012302E0022300E0012318461037CF
:10493000BD4680BD1C00002080B586B002AF034696
:104940003960FB711346BB80FB795B00FB73FB7B1B
:1049500099B2BB884FF0FF3200923A680B4802F0E0
:10496000AFF90346032B0CDC022B08DA002B02D034
:10497000012B02D005E0002304E0012302E0022322
:1049800000E0012318461037BD4680BD1C00002002
:10499000F0B595B006AF144B9B7C1A46134B53F8F9
:1049A0002230114A528811460F4AD28814460E4AC4
:1049B000527B15460C4AD28916460B4A128A381D7C
:1049C00004920396029501940091094A322159F00C
:1049D00091F8084B1B683A1D114618464AF06CFDC9
:1049E00000BF3C37BD46F0BD7800001098000010B5
:1049F00074F605081042012080B500AF054B1B6816
:104A0000002B05D0034B1B681946034800F06EF8D5
:104A100000BF80BDC00F0020A4F6050880B500AF20
:104A20000F4B1B68184637F091FB03460D4A136085
:104A30000C4B1B6864224FF49671184612F088FFE5
:104A4000084B186800236FF04502092113F0BEF8E7
:104A5000044B1B681946044800F048F800BF80BDAD
:104A6000C0410120C00F0020A4F6050880B582B027
:104A700000AF194B1B6903F48073B3F5807F16D028
:104A8000164B1B78002B10D152F034FE0122144932
:104A9000144857F081F90346FB71FB79002B02D1D2
:104AA0000E4B01221A70FB7911E000230FE00B4B33
:104AB0001B78002B0AD00C4B00221A7001220849E7
:104AC000002057F069F9054B00221A70032318469D
:104AD0000837BD4680BD00BF00080240BC0F002063
:104AE000A8F60508880D0020A848012080B5ADF57E
:104AF000187D00AF07F51873A3F51773186007F555
:104B00001873A3F518731960FFF7B0FF034687F811
:104B10005B3297F85B32002B0FD007F51873A3F5C3
:104B20001873186819F0CBFA07F51873A3F5187302
:104B30004049186837F022FB78E007F51873A3F5B1
:104B40001873186819F0BBFA07F51873A3F51773F3
:104B500007F509721968104657F07AFE034687F880
:104B60005B3297F85B32002B58D107F5867207F558
:104B700009731146184657F004FF034687F85B3265
:104B800097F85B32002B43D107F51873A3F5AA738E
:104B90009B7D002B3CD007F51873A3F5AA731B7AF5
:104BA00003F01003002B16D007F58673163307F1B8
:104BB0000C00214A4FF4807158F09CFF07F10C0261
:104BC00007F51873A3F518731C49186837F0F8FA3D
:104BD000C7F85C020DE007F5867303F1160207F5CE
:104BE0001873A3F518731649186837F0E9FAC7F86F
:104BF0005C02002307221349D7F85C020BF030FB5C
:104C0000002305221049D7F85C020BF029FBACE722
:104C100007F50973184657F08EFE07E007F518737D
:104C2000A3F518730949186837F0A8FA07F518773B
:104C3000BD4680BDACF60508C8F60508CCF60508EB
:104C4000D0F60508514C00080D4D0008D4F60508B3
:104C500080B5ADF5527D00AF07F55273A3F55173E2
:104C6000186007F55273A3F5517318680BF082FAB8
:104C7000C7F84403224B1B68D7F84413184637F093
:104C8000DDFAC7F8400307F50F70D7F840331D4A27
:104C90004FF4807158F02EFF07F50F7107F10C03E8
:104CA0000122184657F0BEF8034687F83F3397F8BD
:104CB0003F33002B1CD107F1080307F10C0040F231
:104CC000FF32114957F068FA034687F83F3397F8E7
:104CD0003F33002B07D107F55273A3F550731B68C0
:104CE000094A0021D15407F10C03184657F086FDFC
:104CF000054800F057F800BF07F55277BD4680BD64
:104D0000C00F0020F4F60508C40F002080B5C6B01F
:104D100000AF07F58C73A3F58A73186007F58C73E1
:104D2000A3F58A7318680BF025FAC7F81401194B1C
:104D30001B68D7F81411184637F080FAC7F810012D
:104D400007F10C00D7F81031134A4FF4807158F076
:104D5000D1FE07F10C03184657F050FE034687F8C2
:104D60000F3197F80F31002B07D1D7F810110B48EE
:104D700058F0AEFEFFF740FE07E097F80F311A46F5
:104D8000D7F81011064858F0A3FE00BF07F58C773E
:104D9000BD4680BDC00F0020F4F60508FCF60508EE
:104DA0001CF70508B0B5FEB000AF07F5FC73A3F51E
:104DB000FA731860002387F8F731002387F8F3317E
:104DC000002387F8F63107F5FC73A3F5FA731B6827
:104DD00007F5FC72A2F5FA72591C11601B7887F86E
:104DE000F531002387F8F43185E097F8F5312C2B65
:104DF00025D197F8F63107F5FC72A2F5EA72002189
:104E0000D15497F8F72107F1380113469B0013445A
:104E10009B00C81897F8F631013387F8F63197F8F8
:104E2000F62107F12403194658F0DBFF97F8F73114
:104E3000013387F8F731002387F8F6314DE097F812
:104E4000F5310A2B38D197F8F63107F5FC72A2F547
:104E5000EA720021D15497F8F72107F1380113467F
:104E60009B0013449B00C81897F8F631013387F86C
:104E7000F63197F8F62107F12403194658F0B1FFEF
:104E800007F1380207F2F3131146184600F094F8C0
:104E9000034687F8F43197F8F431FF2B31D097F8B7
:104EA000F3310133DBB287F8F331002387F8F731B0
:104EB000002387F8F63110E097F8F5310D2B0CD070
:104EC00097F8F6315A1C87F8F621194607F5FC7356
:104ED000A3F5EA7397F8F5215A5407F5FC73A3F587
:104EE000FA731B6807F5FC72A2F5FA72591C11607F
:104EF0001B7887F8F53197F8F531002B7FF475AF03
:104F000000E000BF07F5FC73A3F5F6731A46002313
:104F1000136053609360D3601361536197F8F43169
:104F2000FF2B06D097F8F421204B5B7B013B9A4284
:104F300008D0002387F8F43140F6B8311C48FDF75B
:104F400065FD0CE097F8F431013BDAB2174B1A73A8
:104F500097F8F431013BDBB21846FDF715FF1BE073
:104F600097F8F4315A1C134913465B001344DB00D5
:104F7000CA1807F5FC73A3F5F67315461C460FCC4B
:104F800028606960AA60EB6003CC2861696197F8CA
:104F9000F431013387F8F43197F8F431122BDFD96B
:104FA00000BF00BF07F5FC77BD46B0BD780000101C
:104FB00044F705086C080020B0B58AB000AF7860EF
:104FC0003960002387F827307B681B78002B2CD1B1
:104FD000694B1A683B683C331946104650F0CCFFC9
:104FE000664B1A683B6864331946104650F0C4FF9C
:104FF0003B681433184658F0C3FB0346DAB2604BE3
:105000005A733B683C33184658F0BAFB03469AB2D1
:105010005B4B1A803B686433184658F0B1FB03467B
:105020009AB2574B9A800023A2E07B681B78012B31
:1050300001D100239CE0386858F0A2FB0346DBB2A4
:10504000013B87F827304E4B5B7B97F827209A422D
:1050500001D9FF238CE03B681433184658F090FBCD
:105060000346DBB2013BDBB23B733B682833184697
:1050700058F086FB0346DBB2013BDBB27B733B6837
:105080006433184658F07CFB03469BB2FB813B68B7
:105090007833184658F074FB03469BB23B823B685A
:1050A0003C33184658F06CFB03469BB27B823B684E
:1050B0005033184658F064FB03469BB2BB823B68F2
:1050C0008C33184658F05CFB03469BB2FB823B686E
:1050D000C833184658F054FB03469BB23B833B68E9
:1050E000DC33184658F04CFB03469BB27B833B688D
:1050F000A033184658F044FB03469BB2BB833B6881
:10510000B433184658F03CFB03469BB2FB833B6824
:10511000F033184658F034FB03469BB23B843B689F
:1051200003F58273184658F02BFB0346DBB287F871
:10513000223007F10C031846FDF7CCFD0346002B87
:1051400015D097F827200F4913465B001344DB0066
:105150000B441D4607F10C040FCC28606960AA605F
:10516000EB6003CC2861696197F8273000E0FF23EA
:1051700018462837BD46B0BDFC410120044201203D
:10518000780000106C08002080B5D8B000AF07F59B
:10519000B073A3F5AE731860FFF768FC034687F899
:1051A0005B3197F85B31002B02D04FF0FF335BE0AF
:1051B00007F5B073A3F5AE7307F592721968104640
:1051C00057F046FB034687F85A3197F85A31002BBF
:1051D00002D04FF0FF3347E00023C7F85C3125E0F1
:1051E00007F10C0316332349184658F068FD0346AF
:1051F000002B1BD007F1080207F10C0316331E49E0
:10520000184658F0CBFC0346012B0FD107F5B073BD
:10521000A3F5AC731B68D7F85C219A4206DA07F550
:10522000B073A3F5AC731B68C7F85C3107F10C02CF
:1052300007F592731146184657F0A3FB034687F80B
:105240005A3197F85A31002B06D107F5B073A3F500
:10525000AA739B7D002BC3D107F59273184657F0B4
:105260006AFBD7F85C310133184607F5B077BD46C5
:1052700080BD00BF64F705086CF70508F0B5ADF513
:10528000737D0CAFA74B1B881A4607F13C03A64958
:10529000184658F063FCFFF7E9FB034687F89333A1
:1052A00097F89333002B40F0378107F13C0107F565
:1052B000B0730A22184656F0B5FD034687F89233BC
:1052C00097F89233002B05D040F6B8319748FDF798
:1052D0009DFB22E1964B5B7B1A46954B1B8819463A
:1052E000934B9B8807F1600000930B46914958F05F
:1052F00035FC07F160031846FAF774FF024607F120
:105300005C0307F1600107F5B07057F084F80346BD
:1053100087F8923397F89233002B0AD040F6B831D1
:105320008548FDF773FB07F5B073184657F066FA2A
:10533000F3E007F160038149184658F00FFC07F1CC
:1053400060031846FAF74EFF024607F15C0307F1C7
:10535000600107F5B07057F05EF8034687F89233A6
:1053600097F89233002B0AD040F6B8317448FDF715
:105370004DFB07F5B073184657F040FACDE0002317
:10538000C7F89433A3E007F56673A3F55D706D4924
:10539000D7F8942313465B001344DB000B44044608
:1053A0001D4628686968AA68EB680FC4286969699E
:1053B00003C4D7F894335A1C07F56673A3F55D73DD
:1053C0001B789C4607F56673A3F55D735B781946F9
:1053D00007F56673A3F55D73DB881C4607F56673F6
:1053E000A3F55D731B891D4607F56673A3F55D7311
:1053F0005B881E4607F56673A3F55D739B88FB61AA
:1054000007F56673A3F55D735B89BB6107F566738A
:10541000A3F55D731B8A7B6107F56673A3F55D7366
:105420005B8A3B6107F56673A3F55D739B89FB603F
:1054300007F56673A3F55D73DB89BB6007F56673DB
:10544000A3F55D739B8A7B6007F56673A3F55D73B7
:105450009B7D07F160000B937B680A93BB680993FF
:10546000FB6808933B6907937B690693BB690593C7
:10547000FB690493039602950194009163463249B7
:1054800058F06CFB07F160031846FAF7ABFE0246D2
:1054900007F15C0307F1600107F5B07056F0BBFF40
:1054A000034687F8923397F89233002B0AD040F6E0
:1054B000B8312648FDF7AAFA07F5B073184657F039
:1054C0009DF92AE0D7F894330133C7F89433184B89
:1054D0005B7B1A46D7F894339342FFF654AF07F537
:1054E000B073184657F08AF907F13C0207F16003E0
:1054F0001749184658F032FB07F1600340F6B831FF
:105500001846FDF783FA074B1B8801339AB2054B07
:105510001A80FFF771FA00E000BF07F56777BD4614
:10552000F0BD00BF6A0800207CF705088CF705086D
:1055300078000010A0F70508D4F70508ECF7050877
:105540005CF805086C08002070F805089CF8050850
:10555000B0F8050880B500AF00F026F84FF4164308
:1055600000220D490D483AF0CDFB0D483AF088FB7A
:105570000B4B4FF448721A80094B4FF4F0725A806B
:10558000074B084A5A61064B044ADA6004483AF06D
:10559000D5FB00BF80BD00BFE4130020C81300206E
:1055A000E43F0120C155000880B500AF00F0BEF80F
:1055B00000F0BCF8642000F035FA00BF80BD0000A8
:1055C00090B587B002AFF860B9607A60164AFB68A0
:1055D0001360BB68B3F9003098B2BB68B3F902300E
:1055E00099B2BB68B3F904309AB2BB68B3F9003022
:1055F0009BB2D31A9BB201339CB2BB68B3F906309D
:105600009AB2BB68B3F902309BB2D31A9BB2013392
:105610009AB27B6800931346224600F0DBF900BF84
:105620001437BD4690BD00BFC413002080B500AF45
:1056300000F018F808483AF020FD074B01221A70D4
:10564000054B064A5A6004483AF03AFD0346044ABC
:10565000136000BF80BD00BF384001208D56000898
:105660003440012080B584B000AF074A3B1D07CA13
:1056700003C31A803B1D93E80700FEF715FF00BF28
:105680001037BD4680BD00BFD4F8050880B582B094
:1056900000AF7860396000F021F80346002B07D096
:1056A0000C490D4800F034F83B6801229A7302E07F
:1056B0003B6800229A73084BB3F900203B681A80BC
:1056C000044BB3F900203B685A8000BF0837BD4641
:1056D00080BD00BF5A4001205840012080B582B0F3
:1056E00000AFFB1D1846FFF737F8FB795BB2002BC4
:1056F00009DA0020FFF75EF8FB7903F00703002BBF
:1057000001D0012300E0002318460837BD4680BDC4
:1057100080B582B000AF7860396039687868FEF78C
:1057200085FF00BF0837BD4680BD000080B500AFD3
:1057300001224021664801F04DF8642000F008FA8B
:1057400000224021624801F045F84FF4FA7000F061
:10575000FFF9012240215E4801F03CF8642000F08E
:10576000F7F94FF0C043E2221A805A4B27221A80E1
:10577000584B02221A80574B04221A80052000F051
:10578000E7F94FF0C043E0221A80524B01221A8001
:105790000A2000F0DDF94FF0C043E0221A804D4BA3
:1057A00003221A800C2000F0D3F94FF0C0430122ED
:1057B0001A800A2000F0CCF94FF0C043E6221A808C
:1057C000444B03221A80434BFF221A80414BFF2295
:1057D0001A804FF0C043B0221A803E4B00221A803C
:1057E0003C4B00221A803B4B03221A80394B40F27B
:1057F0001F321A80374B01221A80364B40F2DF12DB
:105800001A80344B00221A804FF0C043B4221A8011
:10581000304B04221A802F4B40F21F421A802D4B2E
:1058200000221A802B4B2E221A802A4B00221A802B
:10583000284B00221A80274B00221A80254B002279
:105840001A804FF0C043B6221A80224B02221A80DF
:10585000204B4FF403721A801E4B00221A801D4BFE
:1058600017221A801B4B00221A801A4B00221A8022
:10587000184B00221A804FF0C043F0221A80154BBB
:1058800003221A804FF0C04329221A804FF0C043F0
:10589000D0221A800F4B00221A804FF0C0433622CC
:1058A0001A800C4B08221A804FF0C043B8221A808D
:1058B000084B07221A80074B01221A804FF0C04381
:1058C000BA221A80034B01221A8000BF80BD00BF9C
:1058D000000C02400000026080B483B000AF0346B9
:1058E0000A46FB801346BB804FF0C0432A221A8031
:1058F0000C4AFB881B0A9BB213800A4BFA88D2B26F
:1059000092B21A80074ABB881B0A9BB21380054BD0
:10591000BA88D2B292B21A8000BF0C37BD465DF889
:10592000047B70470000026080B483B000AF034680
:105930000A46FB801346BB804FF0C0432B221A80DF
:105940000C4AFB881B0A9BB213800A4BFA88D2B21E
:1059500092B21A80074ABB881B0A9BB21380054B80
:10596000BA88D2B292B21A8000BF0C37BD465DF839
:10597000047B70470000026090B583B000AF04461E
:10598000084611461A462346FB800346BB800B4659
:105990007B8013463B80FA887B8813449BB2013B93
:1059A0009AB2FB8811461846FFF796FFBA883B88E3
:1059B00013449BB2013B9AB2BB8811461846FFF7CD
:1059C000B3FF4FF0C0432C221A8000BF0C37BD46F6
:1059D00090BD000090B585B000AF04460846114662
:1059E0001A462346FB800346BB800B467B8013464A
:1059F0003B807B883A8802FB03F3FB603B887A8814
:105A0000B988F888FFF7B8FF396AFB68034A044889
:105A100000F082FA00BF1437BD4690BD000002605E
:105A20002001002080B483B000AF0346FB714FF02B
:105A3000C043BE221A800C4B02221A800A4BFA790C
:105A400092B21A80084B01221A80074B40221A801A
:105A5000054B00221A80044B00221A8000BF0C372D
:105A6000BD465DF8047B70470000026080B500AF62
:105A70000E4B1B680D4A43F4007313600B4B1B68FD
:105A80000A4A43F480631360084B1B68074A43F4D7
:105A900080731360032000F04FF90F2000F008F826
:105AA000FBF7D2F90023184680BD00BF003C02403E
:105AB00080B582B000AF7860124B1A68124B1B7829
:105AC00019464FF47A73B3FBF1F3B2FBF3F31846C4
:105AD00000F067F90346002B01D001230EE07B683C
